{
  "_format": "hh-sol-artifact-1",
  "contractName": "MovieVoting",
  "sourceName": "contracts/MovieVoting.sol",
  "abi": [
    {
      "inputs": [
        {
          "internalType": "uint256",
          "name": "votingId",
          "type": "uint256"
        },
        {
          "internalType": "string",
          "name": "movie",
          "type": "string"
        }
      ],
      "name": "MovieNotFound",
      "type": "error"
    },
    {
      "inputs": [
        {
          "internalType": "uint256",
          "name": "votingId",
          "type": "uint256"
        }
      ],
      "name": "NotEligibleToVote",
      "type": "error"
    },
    {
      "inputs": [],
      "name": "ReentrancyGuardReentrantCall",
      "type": "error"
    },
    {
      "inputs": [
        {
          "internalType": "uint256",
          "name": "votingId",
          "type": "uint256"
        }
      ],
      "name": "VotingAlreadyFinished",
      "type": "error"
    },
    {
      "inputs": [
        {
          "internalType": "uint256",
          "name": "votingId",
          "type": "uint256"
        }
      ],
      "name": "VotingExpired",
      "type": "error"
    },
    {
      "inputs": [
        {
          "internalType": "uint256",
          "name": "votingId",
          "type": "uint256"
        }
      ],
      "name": "VotingNotStarted",
      "type": "error"
    },
    {
      "anonymous": false,
      "inputs": [
        {
          "indexed": true,
          "internalType": "uint256",
          "name": "votingId",
          "type": "uint256"
        },
        {
          "indexed": true,
          "internalType": "address",
          "name": "voter",
          "type": "address"
        },
        {
          "indexed": false,
          "internalType": "string",
          "name": "movie",
          "type": "string"
        }
      ],
      "name": "VoteCast",
      "type": "event"
    },
    {
      "anonymous": false,
      "inputs": [
        {
          "indexed": true,
          "internalType": "uint256",
          "name": "votingId",
          "type": "uint256"
        },
        {
          "indexed": true,
          "internalType": "address",
          "name": "creator",
          "type": "address"
        },
        {
          "indexed": false,
          "internalType": "uint256",
          "name": "endTime",
          "type": "uint256"
        }
      ],
      "name": "VotingCreated",
      "type": "event"
    },
    {
      "anonymous": false,
      "inputs": [
        {
          "indexed": true,
          "internalType": "uint256",
          "name": "votingId",
          "type": "uint256"
        },
        {
          "indexed": false,
          "internalType": "string",
          "name": "winner",
          "type": "string"
        }
      ],
      "name": "VotingFinished",
      "type": "event"
    },
    {
      "stateMutability": "nonpayable",
      "type": "fallback"
    },
    {
      "inputs": [
        {
          "internalType": "string[]",
          "name": "_movies",
          "type": "string[]"
        },
        {
          "internalType": "uint256",
          "name": "_duration",
          "type": "uint256"
        }
      ],
      "name": "createVoting",
      "outputs": [],
      "stateMutability": "nonpayable",
      "type": "function"
    },
    {
      "inputs": [
        {
          "internalType": "uint256",
          "name": "_votingId",
          "type": "uint256"
        }
      ],
      "name": "finishVoting",
      "outputs": [],
      "stateMutability": "nonpayable",
      "type": "function"
    },
    {
      "inputs": [
        {
          "internalType": "uint256",
          "name": "_votingId",
          "type": "uint256"
        }
      ],
      "name": "getVoting",
      "outputs": [
        {
          "internalType": "address",
          "name": "",
          "type": "address"
        },
        {
          "internalType": "uint256",
          "name": "",
          "type": "uint256"
        },
        {
          "internalType": "enum MovieVoting.VotingState",
          "name": "",
          "type": "uint8"
        },
        {
          "components": [
            {
              "internalType": "string",
              "name": "name",
              "type": "string"
            },
            {
              "internalType": "uint256",
              "name": "voteCount",
              "type": "uint256"
            }
          ],
          "internalType": "struct MovieVoting.Movie[]",
          "name": "",
          "type": "tuple[]"
        }
      ],
      "stateMutability": "view",
      "type": "function"
    },
    {
      "inputs": [
        {
          "internalType": "uint256",
          "name": "_votingId",
          "type": "uint256"
        },
        {
          "internalType": "address",
          "name": "_user",
          "type": "address"
        }
      ],
      "name": "hasUserVoted",
      "outputs": [
        {
          "internalType": "bool",
          "name": "",
          "type": "bool"
        }
      ],
      "stateMutability": "view",
      "type": "function"
    },
    {
      "inputs": [
        {
          "internalType": "uint256",
          "name": "_votingId",
          "type": "uint256"
        }
      ],
      "name": "startVoting",
      "outputs": [],
      "stateMutability": "nonpayable",
      "type": "function"
    },
    {
      "inputs": [
        {
          "internalType": "uint256",
          "name": "_votingId",
          "type": "uint256"
        },
        {
          "internalType": "string",
          "name": "_movieName",
          "type": "string"
        }
      ],
      "name": "vote",
      "outputs": [],
      "stateMutability": "nonpayable",
      "type": "function"
    },
    {
      "inputs": [],
      "name": "votingCount",
      "outputs": [
        {
          "internalType": "uint256",
          "name": "",
          "type": "uint256"
        }
      ],
      "stateMutability": "view",
      "type": "function"
    },
    {
      "inputs": [
        {
          "internalType": "uint256",
          "name": "",
          "type": "uint256"
        }
      ],
      "name": "votings",
      "outputs": [
        {
          "internalType": "address",
          "name": "creator",
          "type": "address"
        },
        {
          "internalType": "uint256",
          "name": "endTime",
          "type": "uint256"
        },
        {
          "internalType": "enum MovieVoting.VotingState",
          "name": "state",
          "type": "uint8"
        }
      ],
      "stateMutability": "view",
      "type": "function"
    },
    {
      "stateMutability": "payable",
      "type": "receive"
    }
  ],
  "bytecode": "0x6080604052348015600f57600080fd5b506001600081905550611f18806100276000396000f3fe60806040526004361061007f5760003560e01c8063abe7c08e1161004e578063abe7c08e146101d8578063b424ab8414610201578063dc296ae11461022c578063e375223814610269576100bf565b806324108475146101075780633afc7282146101305780633d2f5bda14610170578063a598d03c14610199576100bf565b366100bf576040517f08c379a00000000000000000000000000000000000000000000000000000000081526004016100b690610f72565b60405180910390fd5b3480156100cb57600080fd5b506040517f08c379a00000000000000000000000000000000000000000000000000000000081526004016100fe90610fde565b60405180910390fd5b34801561011357600080fd5b5061012e6004803603810190610129919061118e565b610292565b005b34801561013c57600080fd5b50610157600480360381019061015291906111ea565b6105bd565b604051610167949392919061146b565b60405180910390f35b34801561017c57600080fd5b50610197600480360381019061019291906111ea565b610720565b005b3480156101a557600080fd5b506101c060048036038101906101bb91906111ea565b610895565b6040516101cf939291906114b7565b60405180910390f35b3480156101e457600080fd5b506101ff60048036038101906101fa91906111ea565b6108ec565b005b34801561020d57600080fd5b50610216610c3a565b60405161022391906114ee565b60405180910390f35b34801561023857600080fd5b50610253600480360381019061024e9190611535565b610c40565b6040516102609190611590565b60405180910390f35b34801561027557600080fd5b50610290600480360381019061028b9190611691565b610cab565b005b61029a610e9f565b8160018060028111156102b0576102af611267565b5b6001600084815260200190815260200160002060020160009054906101000a900460ff1660028111156102e6576102e5611267565b5b14610326576040517f08c379a000000000000000000000000000000000000000000000000000000000815260040161031d90611739565b60405180910390fd5b60006001600086815260200190815260200160002090508060040160003373ffffffffffffffffffffffffffffffffffffffff1673ffffffffffffffffffffffffffffffffffffffff16815260200190815260200160002060009054906101000a900460ff16156103cc576040517f08c379a00000000000000000000000000000000000000000000000000000000081526004016103c3906117a5565b60405180910390fd5b80600101544210610412576040517f08c379a000000000000000000000000000000000000000000000000000000000815260040161040990611811565b60405180910390fd5b60008082600301905060005b81805490508110156104c257868051906020012082828154811061044557610444611831565b5b90600052602060002090600202016000016040516104639190611963565b6040518091039020036104b557600182828154811061048557610484611831565b5b906000526020600020906002020160010160008282546104a591906119a9565b92505081905550600192506104c2565b808060010191505061041e565b5081610503576040517f08c379a00000000000000000000000000000000000000000000000000000000081526004016104fa90611a29565b60405180910390fd5b60018360040160003373ffffffffffffffffffffffffffffffffffffffff1673ffffffffffffffffffffffffffffffffffffffff16815260200190815260200160002060006101000a81548160ff0219169083151502179055503373ffffffffffffffffffffffffffffffffffffffff16877ff707341d6361ac6d7fe6b6db1fbb91b1d8634754ce51f2244ccbfab475d327f4886040516105a49190611a82565b60405180910390a350505050506105b9610ee5565b5050565b6000806000606060006001600087815260200190815260200160002090508060000160009054906101000a900473ffffffffffffffffffffffffffffffffffffffff1681600101548260020160009054906101000a900460ff168360030180805480602002602001604051908101604052809291908181526020016000905b8282101561070a578382906000526020600020906002020160405180604001604052908160008201805461066f9061188f565b80601f016020809104026020016040519081016040528092919081815260200182805461069b9061188f565b80156106e85780601f106106bd576101008083540402835291602001916106e8565b820191906000526020600020905b8154815290600101906020018083116106cb57829003601f168201915b505050505081526020016001820154815250508152602001906001019061063c565b5050505090509450945094509450509193509193565b806001600082815260200190815260200160002060000160009054906101000a900473ffffffffffffffffffffffffffffffffffffffff1673ffffffffffffffffffffffffffffffffffffffff163373ffffffffffffffffffffffffffffffffffffffff16146107c5576040517f08c379a00000000000000000000000000000000000000000000000000000000081526004016107bc90611af0565b60405180910390fd5b8160008060028111156107db576107da611267565b5b6001600084815260200190815260200160002060020160009054906101000a900460ff16600281111561081157610810611267565b5b14610851576040517f08c379a000000000000000000000000000000000000000000000000000000000815260040161084890611739565b60405180910390fd5b600180600086815260200190815260200160002060020160006101000a81548160ff0219169083600281111561088a57610889611267565b5b021790555050505050565b60016020528060005260406000206000915090508060000160009054906101000a900473ffffffffffffffffffffffffffffffffffffffff16908060010154908060020160009054906101000a900460ff16905083565b6108f4610e9f565b806001600082815260200190815260200160002060000160009054906101000a900473ffffffffffffffffffffffffffffffffffffffff1673ffffffffffffffffffffffffffffffffffffffff163373ffffffffffffffffffffffffffffffffffffffff1614610999576040517f08c379a000000000000000000000000000000000000000000000000000000000815260040161099090611af0565b60405180910390fd5b8160018060028111156109af576109ae611267565b5b6001600084815260200190815260200160002060020160009054906101000a900460ff1660028111156109e5576109e4611267565b5b14610a25576040517f08c379a0000000000000000000000000000000000000000000000000000000008152600401610a1c90611739565b60405180910390fd5b6001600085815260200190815260200160002060010154421015610a7e576040517f08c379a0000000000000000000000000000000000000000000000000000000008152600401610a7590611b5c565b60405180910390fd5b600060016000868152602001908152602001600020905060028160020160006101000a81548160ff02191690836002811115610abd57610abc611267565b5b021790555060606000805b8360030180549050811015610bf05781846003018281548110610aee57610aed611831565b5b9060005260206000209060020201600101541115610be357836003018181548110610b1c57610b1b611831565b5b9060005260206000209060020201600101549150836003018181548110610b4657610b45611831565b5b90600052602060002090600202016000018054610b629061188f565b80601f0160208091040260200160405190810160405280929190818152602001828054610b8e9061188f565b8015610bdb5780601f10610bb057610100808354040283529160200191610bdb565b820191906000526020600020905b815481529060010190602001808311610bbe57829003601f168201915b505050505092505b8080600101915050610ac8565b50867fd11745b1233607d5130c31fca6b57884f6ee8cc339427524bd711627b6b59add83604051610c219190611a82565b60405180910390a2505050505050610c37610ee5565b50565b60025481565b60006001600084815260200190815260200160002060040160008373ffffffffffffffffffffffffffffffffffffffff1673ffffffffffffffffffffffffffffffffffffffff16815260200190815260200160002060009054906101000a900460ff16905092915050565b6000825111610cef576040517f08c379a0000000000000000000000000000000000000000000000000000000008152600401610ce690611bc8565b60405180910390fd5b60006001600060026000815480929190610d0890611be8565b9190505581526020019081526020016000209050338160000160006101000a81548173ffffffffffffffffffffffffffffffffffffffff021916908373ffffffffffffffffffffffffffffffffffffffff1602179055508142610d6b91906119a9565b816001018190555060008160020160006101000a81548160ff02191690836002811115610d9b57610d9a611267565b5b021790555060005b8351811015610e3857816003016040518060400160405280868481518110610dce57610dcd611831565b5b60200260200101518152602001600081525090806001815401808255809150506001900390600052602060002090600202016000909190919091506000820151816000019081610e1e9190611ddc565b506020820151816001015550508080600101915050610da3565b503373ffffffffffffffffffffffffffffffffffffffff166001600254610e5f9190611eae565b7f7fc01fa922fdc8698ebc55d4a22a710a7e387a3c1960f023e922bbbe849456158360010154604051610e9291906114ee565b60405180910390a3505050565b600260005403610edb576040517f3ee5aeb500000000000000000000000000000000000000000000000000000000815260040160405180910390fd5b6002600081905550565b6001600081905550565b600082825260208201905092915050565b7f44697265637420455448207472616e736665727320617265206e6f7420616c6c60008201527f6f77656400000000000000000000000000000000000000000000000000000000602082015250565b6000610f5c602483610eef565b9150610f6782610f00565b604082019050919050565b60006020820190508181036000830152610f8b81610f4f565b9050919050565b7f46616c6c6261636b2066756e6374696f6e206e6f7420737570706f7274656400600082015250565b6000610fc8601f83610eef565b9150610fd382610f92565b602082019050919050565b60006020820190508181036000830152610ff781610fbb565b9050919050565b6000604051905090565b600080fd5b600080fd5b6000819050919050565b61102581611012565b811461103057600080fd5b50565b6000813590506110428161101c565b92915050565b600080fd5b600080fd5b6000601f19601f8301169050919050565b7f4e487b7100000000000000000000000000000000000000000000000000000000600052604160045260246000fd5b61109b82611052565b810181811067ffffffffffffffff821117156110ba576110b9611063565b5b80604052505050565b60006110cd610ffe565b90506110d98282611092565b919050565b600067ffffffffffffffff8211156110f9576110f8611063565b5b61110282611052565b9050602081019050919050565b82818337600083830152505050565b600061113161112c846110de565b6110c3565b90508281526020810184848401111561114d5761114c61104d565b5b61115884828561110f565b509392505050565b600082601f83011261117557611174611048565b5b813561118584826020860161111e565b91505092915050565b600080604083850312156111a5576111a4611008565b5b60006111b385828601611033565b925050602083013567ffffffffffffffff8111156111d4576111d361100d565b5b6111e085828601611160565b9150509250929050565b600060208284031215611200576111ff611008565b5b600061120e84828501611033565b91505092915050565b600073ffffffffffffffffffffffffffffffffffffffff82169050919050565b600061124282611217565b9050919050565b61125281611237565b82525050565b61126181611012565b82525050565b7f4e487b7100000000000000000000000000000000000000000000000000000000600052602160045260246000fd5b600381106112a7576112a6611267565b5b50565b60008190506112b882611296565b919050565b60006112c8826112aa565b9050919050565b6112d8816112bd565b82525050565b600081519050919050565b600082825260208201905092915050565b6000819050602082019050919050565b600081519050919050565b600082825260208201905092915050565b60005b83811015611344578082015181840152602081019050611329565b60008484015250505050565b600061135b8261130a565b6113658185611315565b9350611375818560208601611326565b61137e81611052565b840191505092915050565b61139281611012565b82525050565b600060408301600083015184820360008601526113b58282611350565b91505060208301516113ca6020860182611389565b508091505092915050565b60006113e18383611398565b905092915050565b6000602082019050919050565b6000611401826112de565b61140b81856112e9565b93508360208202850161141d856112fa565b8060005b85811015611459578484038952815161143a85826113d5565b9450611445836113e9565b925060208a01995050600181019050611421565b50829750879550505050505092915050565b60006080820190506114806000830187611249565b61148d6020830186611258565b61149a60408301856112cf565b81810360608301526114ac81846113f6565b905095945050505050565b60006060820190506114cc6000830186611249565b6114d96020830185611258565b6114e660408301846112cf565b949350505050565b60006020820190506115036000830184611258565b92915050565b61151281611237565b811461151d57600080fd5b50565b60008135905061152f81611509565b92915050565b6000806040838503121561154c5761154b611008565b5b600061155a85828601611033565b925050602061156b85828601611520565b9150509250929050565b60008115159050919050565b61158a81611575565b82525050565b60006020820190506115a56000830184611581565b92915050565b600067ffffffffffffffff8211156115c6576115c5611063565b5b602082029050602081019050919050565b600080fd5b60006115ef6115ea846115ab565b6110c3565b90508083825260208201905060208402830185811115611612576116116115d7565b5b835b8181101561165957803567ffffffffffffffff81111561163757611636611048565b5b8086016116448982611160565b85526020850194505050602081019050611614565b5050509392505050565b600082601f83011261167857611677611048565b5b81356116888482602086016115dc565b91505092915050565b600080604083850312156116a8576116a7611008565b5b600083013567ffffffffffffffff8111156116c6576116c561100d565b5b6116d285828601611663565b92505060206116e385828601611033565b9150509250929050565b7f496e76616c696420737461746500000000000000000000000000000000000000600082015250565b6000611723600d83610eef565b915061172e826116ed565b602082019050919050565b6000602082019050818103600083015261175281611716565b9050919050565b7f416c726561647920766f74656400000000000000000000000000000000000000600082015250565b600061178f600d83610eef565b915061179a82611759565b602082019050919050565b600060208201905081810360008301526117be81611782565b9050919050565b7f566f74696e672065787069726564000000000000000000000000000000000000600082015250565b60006117fb600e83610eef565b9150611806826117c5565b602082019050919050565b6000602082019050818103600083015261182a816117ee565b9050919050565b7f4e487b7100000000000000000000000000000000000000000000000000000000600052603260045260246000fd5b7f4e487b7100000000000000000000000000000000000000000000000000000000600052602260045260246000fd5b600060028204905060018216806118a757607f821691505b6020821081036118ba576118b9611860565b5b50919050565b600081905092915050565b60008190508160005260206000209050919050565b600081546118ed8161188f565b6118f781866118c0565b9450600182166000811461191257600181146119275761195a565b60ff198316865281151582028601935061195a565b611930856118cb565b60005b8381101561195257815481890152600182019150602081019050611933565b838801955050505b50505092915050565b600061196f82846118e0565b915081905092915050565b7f4e487b7100000000000000000000000000000000000000000000000000000000600052601160045260246000fd5b60006119b482611012565b91506119bf83611012565b92508282019050808211156119d7576119d661197a565b5b92915050565b7f4d6f766965206e6f7420666f756e640000000000000000000000000000000000600082015250565b6000611a13600f83610eef565b9150611a1e826119dd565b602082019050919050565b60006020820190508181036000830152611a4281611a06565b9050919050565b6000611a548261130a565b611a5e8185610eef565b9350611a6e818560208601611326565b611a7781611052565b840191505092915050565b60006020820190508181036000830152611a9c8184611a49565b905092915050565b7f4e6f74207468652063726561746f720000000000000000000000000000000000600082015250565b6000611ada600f83610eef565b9150611ae582611aa4565b602082019050919050565b60006020820190508181036000830152611b0981611acd565b9050919050565b7f566f74696e67207374696c6c206f6e676f696e67000000000000000000000000600082015250565b6000611b46601483610eef565b9150611b5182611b10565b602082019050919050565b60006020820190508181036000830152611b7581611b39565b9050919050565b7f4e6f206d6f766965732070726f76696465640000000000000000000000000000600082015250565b6000611bb2601283610eef565b9150611bbd82611b7c565b602082019050919050565b60006020820190508181036000830152611be181611ba5565b9050919050565b6000611bf382611012565b91507fffffffffffffffffffffffffffffffffffffffffffffffffffffffffffffffff8203611c2557611c2461197a565b5b600182019050919050565b60008190508160005260206000209050919050565b60006020601f8301049050919050565b600082821b905092915050565b600060088302611c927fffffffffffffffffffffffffffffffffffffffffffffffffffffffffffffffff82611c55565b611c9c8683611c55565b95508019841693508086168417925050509392505050565b6000819050919050565b6000611cd9611cd4611ccf84611012565b611cb4565b611012565b9050919050565b6000819050919050565b611cf383611cbe565b611d07611cff82611ce0565b848454611c62565b825550505050565b600090565b611d1c611d0f565b611d27818484611cea565b505050565b5b81811015611d4b57611d40600082611d14565b600181019050611d2d565b5050565b601f821115611d9057611d6181611c30565b611d6a84611c45565b81016020851015611d79578190505b611d8d611d8585611c45565b830182611d2c565b50505b505050565b600082821c905092915050565b6000611db360001984600802611d95565b1980831691505092915050565b6000611dcc8383611da2565b9150826002028217905092915050565b611de58261130a565b67ffffffffffffffff811115611dfe57611dfd611063565b5b611e08825461188f565b611e13828285611d4f565b600060209050601f831160018114611e465760008415611e34578287015190505b611e3e8582611dc0565b865550611ea6565b601f198416611e5486611c30565b60005b82811015611e7c57848901518255600182019150602085019450602081019050611e57565b86831015611e995784890151611e95601f891682611da2565b8355505b6001600288020188555050505b505050505050565b6000611eb982611012565b9150611ec483611012565b9250828203905081811115611edc57611edb61197a565b5b9291505056fea2646970667358221220a4a96b37b36710a4c83cf07ceb29805698fc7f46e4f22870af82b0fa49db0e2864736f6c634300081a0033",
  "linkReferences": {},
  "deployedLinkReferences": {}
}